:020000040800F2
:10000000900E0020290200088D14000885140008B5
:100010008914000831040008B91600080000000027
:10002000000000000000000000000000951400081F
:10003000350400080000000091140008991400081D
:10004000430200084302000843020008430200087C
:10005000430200084302000843020008430200086C
:10006000430200084302000843020008430200085C
:10007000430200084302000843020008430200084C
:10008000430200084302000843020008430200083C
:10009000430200084302000843020008430200082C
:1000A000430200084302000843020008430200081C
:1000B000430200084302000843020008430200080C
:1000C00043020008430200084302000843020008FC
:1000D000430200084302000843020008AD1600086E
:1000E00043020008430200084302000843020008DC
:1000F00043020008430200084302000843020008CC
:1001000043020008430200084302000843020008BB
:1001100043020008430200084302000843020008AB
:10012000430200084302000843020008430200089B
:100130004302000800000000000000004302000825
:10014000430200084302000843020008430200087B
:10015000430200084302000843020008430200086B
:10016000430200084302000843020008430200085B
:1001700043020008430200080000000000000000E5
:10018000430200084302000800F002F800F03CF8C7
:100190000AA090E8000C82448344AAF10107DA45E2
:1001A00001D100F031F8AFF2090EBAE80F0013F0F8
:1001B000010F18BFFB1A43F001031847D8160000BF
:1001C000F8160000103A24BF78C878C1FAD8520750
:1001D00024BF30C830C144BF04680C6070470000C1
:1001E0000023002400250026103A28BF78C1FBD840
:1001F000520728BF30C148BF0B6070471FB501F0E0
:100200002FFB1FBD10B510BD00F0D8F81146FFF749
:10021000F5FF01F053FA00F0F6F803B4FFF7F2FF30
:1002200003BC00F0FDF8000009488047094800477A
:10023000FEE7FEE7FEE7FEE7FEE7FEE7FEE7FEE796
:10024000FEE7FEE704480549054A064B70470000F3
:100250009D1400088901000890080020900E0020DD
:10026000900A0020900A002053EA020C00F06980F6
:100270002DE9F04B4FF00006002B1FBFB3FA83F5BA
:1002800003FA05F424FA05F65E4012BF1643B2FAEB
:1002900082F502FA05F4C5F120051EBF22FA05FC1D
:1002A00044EA0C04203556EA044C4FEA144418BFC3
:1002B000641C4FF000084FF00009904271EB030CF2
:1002C00039D3002919BFB1FA81F701FA07F6B0FA5C
:1002D00080F700FA07F6C7F120071EBF20FA07FCD7
:1002E00046EA0C062037B6FBF4FCA7EB0507103FE7
:1002F00007F01F0BCBF120062CFA06F60CFA0BFBCD
:1003000044BFB3460026202FA4BF5E464FF0000B2B
:100310005BEA060C08BF4FF0010B19EB0B0948EB29
:100320000608ABFB027C06FB02CC0BFB03CCC01B1C
:1003300071EB0C01C1E70B46024641464846BDE859
:10034000F08B13B5084318BF4FF0FF300146AFF3F1
:100350000080BDE81C40704702F0FF0343EA03221F
:1003600042EA024200F002B84FF0000200B5134624
:1003700094469646203922BFA0E80C50A0E80C50C5
:10038000B1F12001BFF4F7AF090728BFA0E80C5076
:1003900048BF0CC05DF804EB890028BF40F8042B6F
:1003A00008BF704748BF20F8022B11F0804F18BFDC
:1003B00000F8012B7047704770477047754600F092
:1003C0002BF8AE4605006946534620F007008546E7
:1003D00018B020B5FFF736FFBDE820404FF000060B
:1003E0004FF000074FF000084FF0000BAC46ACE8B0
:1003F000C009ACE8C009ACE8C009ACE8C00921F00C
:1004000007018D46704710B50446AFF300802046C3
:10041000BDE81040FFF701BF004870471000002002
:1004200001491820ABBEFEE726000200704700001D
:10043000FEE700007047000070B5866D044600F0CE
:100440004BF994F83510022928D105462068216C13
:10045000026822F016020260426922F080024261C4
:1004600009B9A16C19B1016821F0080101600168A6
:1004700021F00101016000BF20680068C00715D0AD
:1004800000F02AF9401B0628F6D3202060650320DF
:1004900084F83500002184F8341070BD8020606538
:1004A0000120002184F8341070BD00BFE06D3F21B1
:1004B00001FA00F0B060012084F83500002000212E
:1004C00084F8341070BD000090F83510022909D16D
:1004D000052180F835100068016821F001010160F4
:1004E000002070478021416501207047B0B5044667
:1004F00000F0F2F8054640F20000C2F20000007879
:10050000611C18BF044400BF00F0E6F8401BA04285
:10051000FAD3B0BD2DE9F04F82B000F13E4241F672
:10052000004502F1FF77C4F20205082243F6004EAF
:100530004FEAB726A84208BF0722C4F2010E072ED1
:1005400038BF4FEAB7220125002600274FF00008E8
:10055000009208E008F101080437B8F1100F06F125
:10056000020600F0A7800C6805FA08F914EA090FE2
:10057000F0D0D1F804B003220BF0030CACF101046D
:10058000B240012C6FEA020A10D88268CC6802EAF5
:100590000A02B440224382604268CBF3001422EA8C
:1005A000090204FA08F42243426005E0BCF1030F9B
:1005B00002D14FF0030C20E0C2688C6802EA0A0204
:1005C000B4402243BCF1020FC26016D16FF00302A7
:1005D00002EA58020244D2F820C007F01C050F239B
:1005E0000C69AB402CEA030304FA05F52B431362B4
:1005F000D1F804B001250BF0030C02680CFA06F3E5
:1006000002EA0A021A431BF4403F0260A2D0002211
:1006100043F644030192C4F202031A684FF6084CF1
:1006200042F480421A601A68CFF6FF7C02F48042DE
:100630000192019A28F00302724452F80C3007F03C
:100640000C050F24AC40A343009C04FA05F52B4392
:1006500042F80C30DEF808204B6842EA090543F600
:100660000C4CDC0258BF22EA0905CEF80850C4F24F
:10067000010CDCF800209C0242EA090558BF22EA7E
:100680000905CCF80050DEF804209C0342EA090575
:1006900058BF22EA0905CEF80450DEF80020DB033B
:1006A00042EA090558BF22EA0905CEF800500125A3
:1006B00050E700BF02B0BDE8F08F0000426902EAD7
:1006C0000103914341EA034181617047002A08BF59
:1006D000090481617047000040F68800C2F2000002
:1006E0000068704740F2000040F68801C2F2000046
:1006F000C2F2000100780A681044086070470000E8
:1007000080B543F60040C4F20200016841F4007174
:100710000160016841F480610160016841F4807109
:100720000160032000F088F80F2000F005F800F0C9
:1007300027F8002080BD000070B540F20006C2F22C
:10074000000640F208013278C2F200014FF47A73D9
:100750000968B3FBF2F20446B1FBF2F1084600F07F
:1007600031FB0F2C4FF0010508D838B94FF0FF309E
:1007700021460022002500F033F87460284670BD41
:1007800082B0002043F640010190C4F202014A68A1
:1007900042F480424A604A6802F480420192019A1F
:1007A0000090086840F080500860086800F08050B1
:1007B0000090009802B07047002848BF7047C1B24F
:1007C00000F01F00012202FA00F04EF20012CEF2F9
:1007D000000242EAD10121F00301086070470000E5
:1007E00010B54EF60C5CCEF2000CDCF80030C3F312
:1007F000022E8EF00704042C28BF0424BEF103034C
:100800004FF0FF3E0EFA04F438BF0023A143994095
:100810000EFA03F39A43114300F00F0200F1604314
:100820000901043A03F564436244002848BF02F119
:100830000C03197010BD00004EF60C51CEF20001F1
:100840000A684FF6FF031A4060F30A2242F0806004
:1008500040F0FD70086070472DE9F041002800F07D
:100860008B8043F60808C4F202080446D8F8F8035F
:100870000D4600F00700884207D288F8F853D8F8F0
:10088000F80300F00700A84276D12068810717D549
:10089000410705D5D8F8001041F4E051C8F8001020
:1008A000010705D5D8F8001041F46041C8F80010E0
:1008B000D8F80010A26821F0F0011143C8F8001028
:1008C000C0073FD1D8F8F80300F00700A84207D9C5
:1008D00088F8F853D8F8F80300F00700A8424BD185
:1008E0002068410707D5D8F80010E26821F4E051EC
:1008F0001143C8F80010000708D5D8F80000216996
:1009000020F4604040EAC100C8F8000000F07CF824
:10091000D8F8001041F67A02C1F30311C0F60002C4
:10092000515C40F2080220FA01F140F20400C2F2E8
:1009300000000068C2F200021160FFF7FDFE002017
:10094000BDE8F0816068811E022907D258F8081CB2
:1009500089015CBF0120BDE8F08111E0012807D1C9
:1009600058F8081C89035CBF0120BDE8F08107E04E
:1009700058F8081C890703D40120BDE8F08100BFA6
:10098000D8F8001021F003010843C8F80000FFF771
:10099000A3FE064641F28837D8F80000616800F0EF
:1009A0000C00B0EB810F8DD0FFF796FE801BB84294
:1009B000F2D90320BDE8F08140F2080043F60801B7
:1009C000C2F20000C4F202010068096841F68A021E
:1009D000C1F38221C0F60002515CC840704700009C
:1009E00040F2080043F60801C2F20000C4F202011E
:1009F0000068096841F68A02C1F34231C0F600027C
:100A0000515CC8407047000010B543F60404C4F2BE
:100A10000204606800F00C00082842F20040C0F2B6
:100A2000F40018BF10BD21682268236801F03F025E
:100A3000C3F38811A1FB00010023FFF715FC216817
:100A40000222C1F3014102EB4101B0FBF1F010BD04
:100A50002DE9F04182B0002868D00446007843F6C2
:100A60000006C007C4F202060BD0B06800F00C000C
:100A7000042840F09F803068800302D56068002819
:100A800054D0207880071AD5B06810F00C0F09D028
:100A9000B06800F00C00082840F0A68070684002A2
:100AA00000F1A2803068800702D5E06801283DD1BE
:100AB0003068216920F0F80040EAC10030602078F9
:100AC000000737D4207840074CD4A56955B3B068E7
:100AD00000F00C00082840F0BB80012D26D0706883
:100AE000E16900F480028A4220D1216A00F03F02CD
:100AF0008A421BD147F6C071626A0140B1EB821F86
:100B000014D1A16A4FF6FF73C903994300F4403230
:100B1000A1F580318A4209D1E16A00F07060B0EB42
:100B2000016F03D1002002B0BDE8F081012002B0C6
:100B3000BDE8F0816069002840F20000C4F247205F
:100B400076D00121C0F8801EFFF7C6FD054600BF24
:100B5000706F8007B6D4FFF7BFFD401B0228F7D99E
:100B6000DDE000BF306C10F080580AD10020019009
:100B7000306C40F080503064306C00F08050019058
:100B8000019847F20007C4F200073868C00541D455
:100B9000386840F480703860FFF79EFD054600BF5E
:100BA0003868C00536D4FFF797FD401B0228F7D9F7
:100BB000B5E000BFB06800F00C00082803D17068F1
:100BC00040023FF558AF6068B0F5803F07D0B0F500
:100BD000A02F40F08D80306840F480203060306875
:100BE00040F4803030608DE0E068002852D0002072
:100BF000C4F2472001210160FFF76EFD054600BFEA
:100C0000306880073FF554AFFFF766FD401B0228B0
:100C1000F6D984E0A068012805D005284ED1306FB0
:100C200040F004003067306F40F0010030674FE063
:100C30000021C0F8801EFFF74FFD0546706F80074A
:100C40007FF540AFFFF748FD401B0228F6D966E06C
:100C50000027C4F2472700203866FFF73DFD022D2C
:100C600005460BD1306880015ED5FFF735FD401B8E
:100C700002284FF00300F5D955E700BF3068800126
:100C80007FF550AFFFF728FD401B02284FF003000F
:100C9000F4D948E70020C4F2472000210160FFF7A3
:100CA0001BFD0546306880077FF509AFFFF714FD8F
:100CB000401B02284FF00300F4D934E7316F0028BD
:100CC00021F001013167316F21F0040131674DD00E
:100CD000FFF702FD054641F2883700BF306F8007FD
:100CE00056D4FFF7F9FC401BB842F7D917E000BF14
:100CF0003168002821F480313160316821F480218D
:100D000031604FD0FFF7E8FC054600BF3068800334
:100D10003FF5B7AEFFF7E0FC401B6428F6D903208F
:100D200002B0BDE8F08100BF04F11C052FCD0843DF
:100D300040EA8210D9034FF6FF729143A1F580314A
:100D400040EA05600843706001203866FFF7C4FC84
:100D5000044600BF306880013FF5E4AEFFF7BCFCFD
:100D6000001B02284FF00300F4D9DCE6FFF7B4FCC7
:100D7000054641F2883700BF306F800708D5FFF77E
:100D8000ABFC401BB8424FF00300F5D9CBE600BFE7
:100D9000B8F1000F7FF499AE306C20F080503064D1
:100DA00093E600BFFFF798FC054600BF306880035C
:100DB0007FF567AEFFF790FC401B64284FF00300FF
:100DC000F4D9B0E6411E0020B0EB116F1CBF01202A
:100DD00070474EF21002CEF2000251604EF62351DF
:100DE000CEF20001F0230B70072190601160704774
:100DF0007047000070470000B0B582B0044600683C
:100E00000168C368426901F02F05202D03F0200519
:100E100006D12DB1204602B0BDE8B04000F04EBB77
:100E20005FEA017C1EBF02F0010E03F4907212EB28
:100E30000E0253D1226B012A05D111F0100218BF06
:100E400013F0100236D10A0622D513F080021FD00B
:100E500094F83D1021293FD1A168B1F5805F03D1FD
:100E60002169002900F07282216A4A1C22620978F5
:100E70004160E18C01390A04E1842DD1C16821F07F
:100E80008001C160C16841F04001C16002B0B0BDE5
:100E9000490621D513F040011ED0C16821F0400160
:100EA000C1602021204684F83D1002B0BDE8B0406A
:100EB00000F0E6BA002101910168019141680191B9
:100EC00001994069400613D4A08DE18DE28D002A7E
:100ED00018BF884240F0BE8102B0B0BDCA0718BF3B
:100EE00013F4807240F0BA804A0700F1BD80C2E07E
:100EF000A16B0868426893B2002BEDD0A08D8342AD
:100F0000EAD2E285C969B1F5807F00F09D80206852
:100F100050E8030F216820F4807041E80302DAB141
:100F2000206850E8030F216820F4807041E8030234
:100F300092B1206850E8030F216820F4807041E8E6
:100F400003024AB1206850E8030F216820F4807042
:100F500041E80302002ADAD1206850E8050F216831
:100F600020F0010041E80502DAB1206850E8050FE1
:100F7000216820F0010041E8050292B1206850E8A4
:100F8000050F216820F0010041E805024AB1206800
:100F900050E8050F216820F0010041E80502002A11
:100FA000DAD1206850E8050F216820F0400041E8C0
:100FB0000502DAB1206850E8050F216820F04000F2
:100FC00041E8050292B1206850E8050F216820F041
:100FD000400041E805024AB1206850E8050F216849
:100FE00020F0400041E80502002ADAD1202084F8F0
:100FF0003E0000202063206850E8030F216820F0A5
:10100000100041E80302DAB1206850E8030F2168BC
:1010100020F0100041E8030292B1206850E8030F6D
:10102000216820F0100041E803024AB1206850E82E
:10103000030F216820F0100041E80302002ADAD1F2
:10104000A06BFFF7F9F9A08DE18D401A81B220461F
:1010500002B0BDE8B040FFF7CBBE00BF226C42F04B
:10106000010222644A0706D5BEF1000F03D0226CAC
:1010700042F0020222648A0706D5BEF1000F03D0B7
:10108000226C42F004022264BCF1000F09D545EA4B
:101090000E02B2FA82F2520903D1226C42F0080227
:1010A0002264226C002A3FF417AF11F0200118BF10
:1010B000002D03D0204600F001FA20684069216C21
:1010C00000F0400001F00801401800F0B58000BFBA
:1010D000206850E8030F216820F4907041E8030273
:1010E000BAB3206850E8030F216820F4907041E8FB
:1010F000030272B3206850E8030F216820F4907057
:1011000041E803022AB3206850E8030F216820F465
:10111000907041E80302002ADAD11AE0206850E812
:10112000050F216820F0010041E80502DAB12068CE
:1011300050E8050F216820F0010041E8050292B156
:10114000206850E8050F216820F0010041E8050201
:101150004AB1206850E8050F216820F0010041E8FD
:101160000502002ADAD1206B012824D1206850E83A
:10117000030F216820F0100041E80302DAB1206873
:1011800050E8030F216820F0100041E8030292B1FB
:10119000206850E8030F216820F0100041E80302A6
:1011A0004AB1206850E8030F216820F0100041E8A0
:1011B0000302002ADAD1202084F83E0000202063B8
:1011C0002068406940063FD5206850E8050F216837
:1011D00020F0400041E80502DAB1206850E8050F30
:1011E000216820F0400041E8050292B1206850E8F3
:1011F000050F216820F0400041E805024AB120684F
:1012000050E8050F216820F0400041E80502002A5F
:10121000DAD1A06BC0B141F2B141C0F60001016565
:10122000FFF752F900283FF457AEA06B016D02B0F2
:10123000BDE8B040084700BF2046FFF7DBFD0020B7
:10124000206402B0B0BD00BF204602B0BDE8B0408F
:10125000FFF7D0BD401A216851E8031F226821F42E
:10126000907142E80313DBB1216851E8031F226843
:1012700021F4907142E8031393B1216851E8031FF0
:10128000226821F4907142E803134BB1216851E8C0
:10129000031F226821F4907142E80313002BDAD176
:1012A000216851E8051F226821F0010142E8051379
:1012B000DBB1216851E8051F226821F0010142E8F5
:1012C000051393B1216851E8051F226821F001013F
:1012D00042E805134BB1216851E8051F226821F04F
:1012E000010142E80513002BDAD1202184F83E10D9
:1012F00000212163216851E8031F226821F01001B9
:1013000042E80313002B3FF4A1AE216851E8031F0C
:10131000226821F0100142E80313002B3FF496AE3F
:10132000216851E8031F226821F0100142E80313ED
:10133000002B3FF48BAE216851E8031F226821F097
:10134000100142E80313002BD4D17FE6216A31F863
:10135000022B6FF35F22426021628AE5002804BFFE
:101360000120704710B5044690F83D0028B90020D0
:1013700084F83C00204600F021F8242084F83D0049
:101380002068C16821F40051C160204600F016F9C0
:101390002068016921F490410161416921F02A012D
:1013A0004161C16841F40051C160002020212064E6
:1013B00084F83D1084F83E1010BD000080B586B062
:1013C000016844F60000C4F20000814202D006B079
:1013D00080BD00BF002143F630020191C4F2020239
:1013E000136900F5E03043F480231361136903F4BB
:1013F00080230193019B0191136843F00403136060
:10140000126802F004020192019A4FF440620192C4
:101410000222CDE90221032104910721059101A9AE
:10142000FFF778F8272000210022FFF7D9F92720BD
:10143000FFF7C2F906B080BD70470000034690F880
:101440003D0020280AD100294FF0010018BF002AD2
:1014500000D1704793F83C00012801D10220704769
:101460001962002021219A84DA84186483F83D10DF
:10147000196883F83C00CA6842F08002CA6070476D
:1014800070470000FEE70000FEE70000FEE70000F6
:101490007047000070470000FFF724B94EF68850EF
:1014A000CEF20000016841F4700101607047000055
:1014B000806B0021C185C184FFF79CBC81B090F88E
:1014C0003E10222921D183680246B3F5805F09D1FD
:1014D00052F8281F52F8183C002B63D003685B6851
:1014E0000AE000BF52F8281F13B90369002BF5D09A
:1014F00003685B6803F07F030B70116801311160B2
:10150000C18D01390A04C18502D001B0704700BF06
:101510000168CA6822F02002CA60CA6822F4807298
:10152000CA604A6922F001024A61202180F83E1017
:10153000016B01293ED10021016300BF016851E820
:10154000031F026821F0100142E80313DBB10168B8
:1015500051E8031F026821F0100142E8031393B120
:10156000016851E8031F026821F0100142E80313EB
:101570004BB1016851E8031F026821F0100142E8F5
:101580000313002BDAD101680A68D20606D50022BF
:1015900000920A680092496800910099818D01B01B
:1015A000FFF726BC026852686FF35F2221F8022B16
:1015B0008162A5E701B0FFF73FBF000010B5044608
:1015C0000068D4E902C22369016921F44051114342
:1015D0000161626943EA0C01E3691143C26819437E
:1015E00049F20C639A431143C1604169A26921F435
:1015F000407141F20043114340F48062C4F20103A0
:101600009A42416102D1FFF7EBF901E0FFF7D4F90B
:10161000E16963681922B1F5004FA0FB020123D1F3
:101620005A00DB0FFEF720FE48F21F51C5F2EB1106
:10163000A0FB01235A094FF69C73C0F6FF7303F118
:10164000805302FB0300322303EBC000A0FB010127
:101650004FF4F87000EA111000EB0210C1F34211D0
:1016600008442168886010BD9A009B0FFEF7FCFDBE
:1016700048F21F51C5F2EB11A0FB01235A094FF6A6
:101680009C73C0F6FF7302FB0300322303EB0010D0
:10169000A0FB0101F02000EA511000EB0210C1F3A1
:1016A000431108442168886010BD000040F27400B6
:1016B000C2F20000FFF7A0BBFEE7000092B040F2CC
:1016C000B80043F6300647F20009C2F200004FF4BA
:1016D000FA617822C4F20206C4F20009FEF73CFE69
:1016E000FFF70EF806AC04F108002821FEF73CFED7
:1016F00000270597CDE90377CDE901770097306999
:10170000012540F080503061306900F08050009039
:1017100000980097D9F8000040F48040C9F8000014
:10172000D9F8000000F48040009000984FF4803019
:101730000790204606950C97FFF78AF920B1EFF342
:10174000108072B6FEE700BF0F2001A9A1C101A859
:101750000021CDE90477FFF77FF828B1EFF310807F
:1017600072B600BFFEE700BF4FF00008CDF828803A
:10177000CDF80480306809F5C83440F0800030604E
:1017800030684FF4805100F0800001900198CDF84E
:1017900004803068002240F00100306030684FF46F
:1017A000805500F0010001900198CDF80480306868
:1017B00040F004003060306800F0040001900198AF
:1017C0002046FEF783FF0120CDE9070806A9204641
:1017D0000695CDF82480FEF79DFE40F27007C2F218
:1017E000000744F60001C4F20001384640F8041F27
:1017F0004FF4E1310C22C0E90118C0E90388C0E9C7
:101800000528C0F81C80FFF7A9FD28B1EFF3108070
:1018100072B600BFFEE700BF40F2B8086FF03206B4
:101820003D1DC2F2000800BF20464FF48051FEF774
:1018300045FF4FF47A70FEF759FE3878013000FB0F
:1018400006F1CAB2920842EA8111C9B20C29387075
:10185000EAD8284641464FF4FA62FFF7EFFDE3E786
:10186000F1EE100A4FF6FF71C0F2C03120EA01001C
:1018700040F04070E1EE100A7047000000000000E8
:10188000000001020304060708090000000001022D
:1018900003040000B8180008000000201000000039
:1018A000C4010008C818000810000020800E0000C5
:1018B000E00100080000000001000000100000002E
:0818C0000024F4000000000008
:040000050800018965
:00000001FF
