:020000040800F2
:10000000E006002029020008DD140008D5140008CD
:10001000D91400082104000881170008000000001E
:10002000000000000000000000000000651700084C
:100030002504000800000000E1140008691700080A
:10004000430200084302000843020008430200087C
:10005000430200084302000843020008430200086C
:10006000430200084302000843020008430200085C
:10007000430200084302000843020008430200084C
:10008000430200084302000843020008430200083C
:10009000430200084302000843020008430200082C
:1000A000430200084302000843020008430200081C
:1000B000430200084302000843020008430200080C
:1000C000430200084302000843020008E514000848
:1000D00043020008430200084302000843020008EC
:1000E00043020008430200084302000843020008DC
:1000F00043020008430200084302000843020008CC
:1001000043020008430200084302000843020008BB
:1001100043020008430200084302000843020008AB
:10012000430200084302000843020008430200089B
:100130004302000800000000000000004302000825
:10014000430200084302000843020008430200087B
:10015000430200084302000843020008430200086B
:10016000430200084302000843020008430200085B
:1001700043020008430200080000000000000000E5
:10018000430200084302000800F002F800F03CF8C7
:100190000AA090E8000C82448344AAF10107DA45E2
:1001A00001D100F031F8AFF2090EBAE80F0013F0F8
:1001B000010F18BFFB1A43F0010318472017000076
:1001C00040170000103A24BF78C878C1FAD8520707
:1001D00024BF30C830C144BF04680C6070470000C1
:1001E0000023002400250026103A28BF78C1FBD840
:1001F000520728BF30C148BF0B6070471FB501F0E0
:1002000058FB1FBD10B510BD00F0D0F81146FFF728
:10021000F5FF01F0B7FA00F0EEF803B4FFF7F2FFD4
:1002200003BC00F0F5F80000094880470948004782
:10023000FEE7FEE7FEE7FEE7FEE7FEE7FEE7FEE796
:10024000FEE7FEE704480549054A064B70470000F3
:100250006D17000889010008E0000020E00600207A
:10026000E0020020E002002053EA020C00F0698066
:100270002DE9F04B4FF00006002B1FBFB3FA83F5BA
:1002800003FA05F424FA05F65E4012BF1643B2FAEB
:1002900082F502FA05F4C5F120051EBF22FA05FC1D
:1002A00044EA0C04203556EA044C4FEA144418BFC3
:1002B000641C4FF000084FF00009904271EB030CF2
:1002C00039D3002919BFB1FA81F701FA07F6B0FA5C
:1002D00080F700FA07F6C7F120071EBF20FA07FCD7
:1002E00046EA0C062037B6FBF4FCA7EB0507103FE7
:1002F00007F01F0BCBF120062CFA06F60CFA0BFBCD
:1003000044BFB3460026202FA4BF5E464FF0000B2B
:100310005BEA060C08BF4FF0010B19EB0B0948EB29
:100320000608ABFB027C06FB02CC0BFB03CCC01B1C
:1003300071EB0C01C1E70B46024641464846BDE859
:10034000F08B13B5084318BF4FF0FF300146AFF3F1
:100350000080BDE81C4070474FF0000200B5134616
:1003600094469646203922BFA0E80C50A0E80C50D5
:10037000B1F12001BFF4F7AF090728BFA0E80C5086
:1003800048BF0CC05DF804EB890028BF40F8042B7F
:1003900008BF704748BF20F8022B11F0804F18BFEC
:1003A00000F8012B7047704770477047754600F0A2
:1003B0002BF8AE4605006946534620F007008546F7
:1003C00018B020B5FFF73EFFBDE820404FF0000613
:1003D0004FF000074FF000084FF0000BAC46ACE8C0
:1003E000C009ACE8C009ACE8C009ACE8C00921F01C
:1003F00007018D46704710B50446AFF300802046D4
:10040000BDE81040FFF709BF004870471800002002
:1004100001491820ABBEFEE726000200704700002D
:10042000FEE700007047000090F83510022909D15E
:10043000052180F835100068016821F00101016094
:100440000020704780214165012070472DE9F04F61
:1004500082B000F13E4241F6004502F1FF77C4F25E
:100460000205082243F6004E4FEAB726A84208BF0D
:100470000722C4F2010E072E38BF4FEAB72201252A
:10048000002600274FF00008009208E008F101085C
:100490000437B8F1100F06F1020600F0A7800C68CF
:1004A00005FA08F914EA090FF0D0D1F804B00322D4
:1004B0000BF0030CACF10104B240012C6FEA020A0C
:1004C00010D88268CC6802EA0A02B44022438260F3
:1004D0004268CBF3001422EA090204FA08F422432A
:1004E000426005E0BCF1030F02D14FF0030C20E0A5
:1004F000C2688C6802EA0A02B4402243BCF1020FCF
:10050000C26016D16FF0030202EA58020244D2F828
:1005100020C007F01C050F230C69AB402CEA030335
:1005200004FA05F52B431362D1F804B001250BF052
:10053000030C02680CFA06F302EA0A021A431BF4DF
:10054000403F0260A2D0002243F644030192C4F26D
:1005500002031A684FF6084C42F480421A601A6887
:10056000CFF6FF7C02F480420192019A28F0030248
:10057000724452F80C3007F00C050F24AC40A34332
:10058000009C04FA05F52B4342F80C30DEF80820F5
:100590004B6842EA090543F60C4CDC0258BF22EADC
:1005A0000905CEF80850C4F2010CDCF800209C02CA
:1005B00042EA090558BF22EA0905CCF80050DEF8E6
:1005C00004209C0342EA090558BF22EA0905CEF837
:1005D0000450DEF80020DB0342EA090558BF22EA96
:1005E0000905CEF80050012550E700BF02B0BDE874
:1005F000F08F000040F2DC00C2F20000006870479B
:1006000040F2000040F2DC01C2F20000C2F2000140
:1006100000780A68104408607047000080B543F60F
:100620000040C4F20200016841F4007101600168F9
:1006300041F480610160016841F480710160032030
:1006400000F088F80F2000F005F800F027F80020EF
:1006500080BD000070B540F20006C2F2000640F214
:1006600008013278C2F200014FF47A730968B3FBD3
:10067000F2F20446B1FBF2F1084600F015FF0F2C30
:100680004FF0010508D838B94FF0FF30214600225D
:10069000002500F033F87460284670BD82B0002059
:1006A00043F640010190C4F202014A6842F48042DC
:1006B0004A604A6802F480420192019A00900868F8
:1006C00040F080500860086800F08050009000986A
:1006D00002B07047002848BF7047C1B200F01F0049
:1006E000012202FA00F04EF20012CEF2000242EABB
:1006F000D10121F0030108607047000010B54EF6EB
:100700000C5CCEF2000CDCF80030C3F3022E8EF04D
:100710000704042C28BF0424BEF103034FF0FF3E5E
:100720000EFA04F438BF0023A14399400EFA03F3F4
:100730009A43114300F00F0200F160430901043AAB
:1007400003F564436244002848BF02F10C031970AA
:1007500010BD00004EF60C51CEF200010A684FF6B3
:10076000FF031A4060F30A2242F0806040F0FD70FF
:10077000086070472DE9F041002800F08B8043F6B7
:100780000808C4F202080446D8F8F8030D4600F041
:100790000700884207D288F8F853D8F8F80300F029
:1007A0000700A84276D12068810717D5410705D5F3
:1007B000D8F8001041F4E051C8F80010010705D541
:1007C000D8F8001041F46041C8F80010D8F80010C3
:1007D000A26821F0F0011143C8F80010C0073FD112
:1007E000D8F8F80300F00700A84207D988F8F853B2
:1007F000D8F8F80300F00700A8424BD12068410761
:1008000007D5D8F80010E26821F4E0511143C8F888
:100810000010000708D5D8F80000216920F46040D6
:1008200040EAC100C8F8000000F054F8D8F8001001
:1008300041F6CC02C1F30311C0F60002515C40F254
:10084000080220FA01F140F20400C2F20000006840
:10085000C2F200021160FFF7FDFE0020BDE8F0814A
:100860006068811E022907D258F8081C89015CBF04
:100870000120BDE8F08111E0012807D158F8081CDB
:1008800089035CBF0120BDE8F08107E058F8081C2F
:10089000890703D40120BDE8F08100BFD8F800101B
:1008A00021F003010843C8F80000FFF7A3FE064645
:1008B00041F28837D8F80000616800F00C00B0EB16
:1008C000810F8DD0FFF796FE801BB842F2D903202E
:1008D000BDE8F08110B543F60404C4F20204606878
:1008E00000F00C00082842F20040C0F2F40018BFEB
:1008F00010BD21682268236801F03F02C3F388110C
:10090000A1FB00010023FFF7AFFC21680222C1F325
:10091000014102EB4101B0FBF1F010BD2DE9F041C6
:1009200082B0002868D00446007843F60006C0076D
:10093000C4F202060BD0B06800F00C00042840F0AE
:100940009F803068800302D56068002854D02078EA
:1009500080071AD5B06810F00C0F09D0B06800F00D
:100960000C00082840F0A6807068400200F1A280C8
:100970003068800702D5E06801283DD130682169E0
:1009800020F0F80040EAC10030602078000737D43A
:10099000207840074CD4A56955B3B06800F00C002E
:1009A000082840F0BB80012D26D07068E16900F472
:1009B00080028A4220D1216A00F03F028A421BD184
:1009C00047F6C071626A0140B1EB821F14D1A16A7F
:1009D0004FF6FF73C903994300F44032A1F580310B
:1009E0008A4209D1E16A00F07060B0EB016F03D177
:1009F000002002B0BDE8F081012002B0BDE8F08126
:100A00006069002840F20000C4F2472076D001213E
:100A1000C0F8801EFFF7EEFD054600BF706F80072F
:100A2000B6D4FFF7E7FD401B0228F7D9DDE000BF91
:100A3000306C10F080580AD100200190306C40F0EA
:100A400080503064306C00F080500190019847F283
:100A50000007C4F200073868C00541D4386840F484
:100A600080703860FFF7C6FD054600BF3868C005D6
:100A700036D4FFF7BFFD401B0228F7D9B5E000BF11
:100A8000B06800F00C00082803D1706840023FF500
:100A900058AF6068B0F5803F07D0B0F5A02F40F0A8
:100AA0008D80306840F480203060306840F48030C1
:100AB00030608DE0E068002852D00020C4F247206A
:100AC00001210160FFF796FD054600BF30688007F1
:100AD0003FF554AFFFF78EFD401B0228F6D984E0A6
:100AE000A068012805D005284ED1306F40F00400E1
:100AF0003067306F40F0010030674FE00021C0F8F0
:100B0000801EFFF777FD0546706F80077FF540AFC9
:100B1000FFF770FD401B0228F6D966E00027C4F2FB
:100B2000472700203866FFF765FD022D05460BD1EB
:100B3000306880015ED5FFF75DFD401B02284FF055
:100B40000300F5D955E700BF306880017FF550AF4D
:100B5000FFF750FD401B02284FF00300F4D948E78F
:100B60000020C4F2472000210160FFF743FD054645
:100B7000306880077FF509AFFFF73CFD401B022876
:100B80004FF00300F4D934E7316F002821F0010160
:100B90003167316F21F0040131674DD0FFF72AFD35
:100BA000054641F2883700BF306F800756D4FFF703
:100BB00021FD401BB842F7D917E000BF316800287B
:100BC00021F480313160316821F4802131604FD0CF
:100BD000FFF710FD054600BF306880033FF5B7AE54
:100BE000FFF708FD401B6428F6D9032002B0BDE8DA
:100BF000F08100BF04F11C052FCD084340EA8210AC
:100C0000D9034FF6FF729143A1F5803140EA0560A8
:100C10000843706001203866FFF7ECFC044600BF13
:100C2000306880013FF5E4AEFFF7E4FC001B0228CA
:100C30004FF00300F4D9DCE6FFF7DCFC054641F297
:100C4000883700BF306F800708D5FFF7D3FC401B03
:100C5000B8424FF00300F5D9CBE600BFB8F1000F62
:100C60007FF499AE306C20F08050306493E600BF82
:100C7000FFF7C0FC054600BF306880037FF567AE14
:100C8000FFF7B8FC401B64284FF00300F4D9B0E62E
:100C900070470000B0B582B00446006841688268C1
:100CA00012F0400305D112F0010518BF11F0400504
:100CB00012D1950708D511F0800505D0616C20464A
:100CC00002B0BDE8B040084712F4B07F18BF11F081
:100CD000200507D102B0B0BD216C204602B0BDE8AE
:100CE000B0400847BBB194F85130032B08D1002124
:100CF0000191C168019180680190019802B0B0BD76
:100D0000636D43F00403636500230193C36801939B
:100D100083680193019B12F0200302F4807203D1D7
:100D20008AB9626DDAB9D5E7636D43F00103636593
:100D30000023019383680193036823F04003036059
:100D4000019B002AEDD0626D42F00802626500222C
:100D5000019282680192019A626D002ABAD04268BB
:100D6000890722F0E00242604FF0010284F851202E
:100D700020D0416841F2356521F003014160E06C0B
:100D8000C0F6000538B10565FFF74EFB18B1606D80
:100D900040F040006065A06C00289BD00565FFF71F
:100DA00043FB00283FF496AF606D40F04000606563
:100DB00002B0B0BD204602B0BDE8B040FFF768BF4A
:100DC00070B538B10446406A30B10020206104F1AA
:100DD000140007E0012070BD6068B0F5827F03D089
:100DE00004F11C00002101600026A66294F8510065
:100DF00020B9204684F8506000F03CF8022084F8C6
:100E0000510094E80F0001F48271056802F4044275
:100E100025F040050560114403F400622369114484
:100E200003F002026369114403F00102A369E5695A
:100E3000114403F40072114405F03802256A11448C
:100E400005F08002A56A114305F4005211430160C8
:100E5000626A042101EA134102F010021144416068
:100E6000C16921F40061C1610120666584F8510007
:100E7000304670BD80B586B0016843F20000C4F210
:100E80000100814202D006B080BD00BF002143F6C0
:100E900030020191C4F20202536900F5504043F45C
:100EA00080535361536903F480530193019B019173
:100EB000136843F001031360126802F0010201920B
:100EC000019AE02201920222CDE90221032104913C
:100ED0000521059101A9FFF7B9FA2320002100227D
:100EE000FFF70CFC2320FFF7F5FB06B080BD0000E8
:100EF0002DE9F04381B0044640681D461746B0F521
:100F0000827F0E4601D1A068E0B394F8500001281A
:100F100004D1022001B0BDE8F08300BF4FF0010909
:100F200084F85090FFF766FB94F85110012927D1FF
:100F30008046002E4FF0010018BF002F00F0C9803E
:100F40000420002184F851006165A663A787E78724
:100F50002163A186E186A2682068B2F5004F216472
:100F600061644BD00168490653D5E168E08F0029E0
:100F700057D0002800F08680681C1CD12DE000BFEF
:100F80000220A6E0042084F8510020463146324673
:100F90003B46009500F0A6F801B0BDE8F08300BF25
:100FA000C068A16B21F8020BA163E08F0138E087D4
:100FB000E08F002866D020688168C907F0D1FFF76C
:100FC00019FBA0EB0800A842F2D3032081E000BF88
:100FD000FFF710FBE08F002854D020688168C90714
:100FE000F6D0C068A16B21F8020BA163E08F013835
:100FF000E087E08F0028F0D144E000BF016821F0D5
:1010000040010160016821F48041016001684906E6
:10101000ABD4016841F040010160E168E08F002934
:10102000A7D178B3681C0CD11CE000BF007BA16B7A
:101030000870A06B0130A063E08F0138E087E08F7B
:1010400000B320688168C907F0D1FFF7D3FAA0EB9D
:101050000800A842F3D303203BE000BFFFF7CAFA21
:10106000E08F78B120688168C907F7D0007BA16B59
:101070000870A06B0130A063E08F0138E087E08F3B
:101080000028EFD16068B0F5827F0ED1A068B0F57E
:10109000004F02D0B0F5806F0AD12168B0F5806FA3
:1010A0000A6822F040020A6002D12046012101E0D4
:1010B000204680212A46434600F0E2FA28B1606DBE
:1010C00040F02000606520206065606D002818BF3A
:1010D0000120002184F8519084F8501001B0BDE83F
:1010E000F08300002DE9F04383B0044690F85000EF
:1010F000012803D1022003B0BDE8F08301201E4681
:1011000015460F4684F85000FFF774FA94F8511012
:101110008146012940F09880002F4FF0010018BF50
:10112000002D00F09E80002E00F09B8094F851006E
:10113000002104281CBF052084F851006165A563C7
:10114000E687A6872763E6862068A6862164616411
:101150000168490603D4016841F0400101606168FB
:10116000731EE268B1FA81F1B3FA83F3DDF82880E7
:1011700049095B09B2F5006F41EA03017AD131B147
:1011800037F8021BC1602763E08E0138E086012535
:1011900018F1010031D101E0FFF72CFAE08E18B907
:1011A000E08F002800F0D0802068816889070CD586
:1011B000E18E51B1012D08D1216B002531F8022BB0
:1011C000C2602163E18E0139E1868168C907E3D0FD
:1011D000E18F0029E0D0C068A16B012521F8020B46
:1011E000A163E08F0138E087D6E700BFFFF702FA7E
:1011F000A0EB0900404580F0FD80E08E18B9E08F3B
:10120000002800F0A1802068816889070CD5E18E54
:1012100051B1012D08D1216B002531F8022BC2609C
:101220002163E18E0139E1868168C907DED0E18F53
:101230000029DBD0C068A16B012521F8020BA16356
:10124000E08F0138E087D1E76068B0F5827F07D191
:10125000A06800284FF0020008BF042901D15BE715
:101260000220012184F85110002184F8501003B0AD
:10127000BDE8F08339B139780173206B0130206308
:10128000E08E0138E086012518F1010033D101E03C
:10129000FFF7B0F9E08E10B9E08F002854D0206835
:1012A000816889070ED5E18E61B1012D0AD1216BCC
:1012B000002509780173216B206801312163E18EDB
:1012C0000139E1868168C907E2D0E18F0029DFD0CA
:1012D000C068A16B01250870A06B0130A063E08F8E
:1012E0000138E087D4E700BFFFF784F9A0EB0900DD
:1012F000404580F08180E08E08B9E08F20B32068FF
:10130000816889070ED5E18E61B1012D0AD1216B6B
:10131000002509780173216B206801312163E18E7A
:101320000139E1868168C907DED0E18F0029DBD071
:10133000C068A16B01250870A06B0130A063E08F2D
:101340000138E087D0E700BF40F20800C2F2000099
:10135000006849F68171C1F25E61A0FB0101480D90
:101360004FF47A71484302906068B0F5827F0FD1E4
:101370002046802142464B4600F082F960B3606D02
:1013800040F02000606520206065012069E700BF13
:10139000029808B30298013802902068806800061D
:1013A0001AD50298C0B1029801380290206880686E
:1013B000000611D5029878B1029801380290206891
:1013C0008068000608D5029830B102980138029072
:1013D000206880680006DBD4A06800284FF0000079
:1013E0007FF43FAF01902168CA680192896801913A
:1013F000019936E7032034E7032032E710B590F86F
:101400005030012B04BF022010BD00294FF0010312
:1014100018BF002A04D1002180F85010184610BDD2
:1014200090F85130012B37D1032380F8513000233D
:10143000436501638286C28683638387C387D0E95D
:1014400002C241F24164016841F2616EC0F60004DB
:10145000002AC0F6000E08BF7446BCF5004F0364B6
:10146000446407D10A6822F040020A600A6842F424
:1014700080420A604A6842F0A0024A600A68520646
:1014800003D40A6842F040020A600023002180F879
:101490005010184610BD00BF0223002180F85010E4
:1014A000184610BD70470000411E0020B0EB116FC0
:1014B0001CBF012070474EF21002CEF200025160B4
:1014C0004EF62351CEF20001F0230B7007219060FD
:1014D00011607047FEE70000FEE70000FEE7000035
:1014E0007047000040F28400C2F20000FFF7D2BB58
:1014F000B0B584B040F20805C2F20005296841F693
:10150000F112C0F27652A1FB02120446500A642185
:1015100048430290FFF76EF80346029810B3029812
:101520000138029020688168890720D40298C8B1E8
:1015300002980138029020688168890717D40298C0
:1015400080B10298013802902068816889070ED422
:10155000029838B1029801380290206881688907A2
:10156000DBD504E02068616D41F0200161654168D0
:1015700049F6817221F0A00141602968C1F25E62E2
:10158000A1FB0212510D4FF47A725143039161682D
:10159000B1F5827F22D120468021642200F070F8CC
:1015A00038B1606D40F020006065606D40F0200053
:1015B0006065A06838B9002001902068C168019179
:1015C000806801900198012084F85100606D58B343
:1015D000204604B0BDE8B040FFF75ABB039900298C
:1015E000E7D003990139039181680906E1D5039990
:1015F0000029DED003990139039181680906D8D505
:1016000003990029D5D0039901390391816809060E
:10161000CFD503990029CCD0039901390391816872
:101620000906DBD4C5E700BF204604B0BDE8B040E2
:10163000FFF738BF806B0021C187C186FFF728BB49
:10164000016B026831F8023BD3600163C18E01393E
:10165000C186C18E002918BF7047FFF749BF00003F
:10166000016B026809781173016B01310163C18E4E
:101670000139C186C18E002918BF7047FFF738BFF6
:101680002DE9F04182B01E4690460D460446FEF715
:10169000B1FF301A00EB0807FEF7ACFF40F208017B
:1016A000C2F200010968C1F3CB317943019121688D
:1016B0008A682A40AA4227D1064618F101001FD0A5
:1016C000FEF798FF801BB84222D2019801990028AA
:1016D000A1F1010101912168896808BF074601EA6B
:1016E0000500A842ECD00FE088682840A8420BD142
:1016F00088682840A84207D188682840A84203D1BA
:1017000088682840A842EFD0002002B0BDE8F081F0
:10171000D4E900014268B1F5827F22F0E002426024
:101720000AD1A168B1F5004F02D0B1F5806F03D1A5
:10173000016821F040010160A16AB1F5005F07D1A5
:10174000016821F400510160016841F40051016019
:10175000012084F85100002084F85000032002B0DA
:10176000BDE8F08170470000FEF74ABF4EF6885092
:10177000CEF20000016841F4700101607047000082
:10178000FEE7000092B043F6300647F20008C4F2CC
:101790000206C4F20008FEF741FF06AC04F108009F
:1017A0002821FEF7D9FD00270597CDE90377CDE97C
:1017B000017700973069012540F080503061306931
:1017C00000F08050009000980097D8F8000040F496
:1017D0008040C8F80000D8F8000000F48040009075
:1017E00000984FF480300790204606950C97FFF73D
:1017F00095F828B1EFF3108072B600BFFEE700BF86
:101800000F2001A9A1C101A80021CDE90477FEF7AD
:10181000B1FF28B1EFF3108072B600BFFEE700BF42
:1018200000210691306840F2780440F0800030607A
:101830003068C2F2000400F080000690069806911D
:10184000306808F5404240F00100306030684FF4E5
:10185000007300F0010006900698204640F80C2F17
:101860004FF48272C0E901210A22C0E90311C0E9E4
:101870000513C0E90711C0E90911C262FFF7A0FA18
:1018800020B1EFF3108072B6FEE700BF40F20C0605
:1018900004F10C05C2F20006284631460C22FFF77F
:1018A000ADFD284621460C224FF47A73FFF720FB4A
:1018B000F2E7F1EE100A4FF6FF71C0F2C03120EAF4
:1018C000010040F04070E1EE100A70470000000097
:1018D00000000000010203040607080900190008BF
:1018E0000000002018000000C401000818190008BA
:1018F00018000020C8060000E001000800000000F9
:1019000001000000100000000024F40068656C6C09
:081910006F20776F726C640018
:040000050800018965
:00000001FF
